{
  "contractName": "FlipContract",
  "abi": [
    {
      "anonymous": false,
      "inputs": [
        {
          "indexed": true,
          "internalType": "address",
          "name": "previousOwner",
          "type": "address"
        },
        {
          "indexed": true,
          "internalType": "address",
          "name": "newOwner",
          "type": "address"
        }
      ],
      "name": "OwnershipTransferred",
      "type": "event"
    },
    {
      "anonymous": false,
      "inputs": [
        {
          "indexed": true,
          "internalType": "address",
          "name": "user",
          "type": "address"
        },
        {
          "indexed": true,
          "internalType": "uint256",
          "name": "bet",
          "type": "uint256"
        },
        {
          "indexed": true,
          "internalType": "bool",
          "name": "win",
          "type": "bool"
        },
        {
          "indexed": false,
          "internalType": "uint8",
          "name": "side",
          "type": "uint8"
        }
      ],
      "name": "bet",
      "type": "event"
    },
    {
      "anonymous": false,
      "inputs": [
        {
          "indexed": false,
          "internalType": "address",
          "name": "owner",
          "type": "address"
        },
        {
          "indexed": false,
          "internalType": "uint256",
          "name": "funding",
          "type": "uint256"
        }
      ],
      "name": "funded",
      "type": "event"
    },
    {
      "inputs": [],
      "name": "ContractBalance",
      "outputs": [
        {
          "internalType": "uint256",
          "name": "",
          "type": "uint256"
        }
      ],
      "stateMutability": "view",
      "type": "function"
    },
    {
      "inputs": [],
      "name": "owner",
      "outputs": [
        {
          "internalType": "address",
          "name": "",
          "type": "address"
        }
      ],
      "stateMutability": "view",
      "type": "function"
    },
    {
      "inputs": [],
      "name": "renounceOwnership",
      "outputs": [],
      "stateMutability": "nonpayable",
      "type": "function"
    },
    {
      "inputs": [
        {
          "internalType": "address",
          "name": "newOwner",
          "type": "address"
        }
      ],
      "name": "transferOwnership",
      "outputs": [],
      "stateMutability": "nonpayable",
      "type": "function"
    },
    {
      "inputs": [
        {
          "internalType": "uint8",
          "name": "side",
          "type": "uint8"
        }
      ],
      "name": "flip",
      "outputs": [
        {
          "internalType": "bool",
          "name": "win",
          "type": "bool"
        }
      ],
      "stateMutability": "payable",
      "type": "function"
    },
    {
      "inputs": [],
      "name": "withdrawAll",
      "outputs": [
        {
          "internalType": "uint256",
          "name": "",
          "type": "uint256"
        }
      ],
      "stateMutability": "nonpayable",
      "type": "function"
    },
    {
      "inputs": [],
      "name": "getBalance",
      "outputs": [
        {
          "internalType": "uint256",
          "name": "",
          "type": "uint256"
        }
      ],
      "stateMutability": "view",
      "type": "function"
    },
    {
      "inputs": [],
      "name": "fundContract",
      "outputs": [],
      "stateMutability": "payable",
      "type": "function"
    }
  ],
  "bytecode": "0x608060405234801561001057600080fd5b5060006100216100c460201b60201c565b9050806000806101000a81548173ffffffffffffffffffffffffffffffffffffffff021916908373ffffffffffffffffffffffffffffffffffffffff1602179055508073ffffffffffffffffffffffffffffffffffffffff16600073ffffffffffffffffffffffffffffffffffffffff167f8be0079c531659141344cd1fd0a4f28419497f9722a3daafe3b4186f6b6457e060405160405180910390a3506100cc565b600033905090565b610e69806100db6000396000f3fe60806040526004361061007b5760003560e01c8063853828b61161004e578063853828b61461011d5780638da5cb5b14610148578063bd097e2114610173578063f2fde38b1461017d5761007b565b806312065fe0146100805780633b668059146100ab578063638c0637146100d6578063715018a614610106575b600080fd5b34801561008c57600080fd5b506100956101a6565b6040516100a29190610ae0565b60405180910390f35b3480156100b757600080fd5b506100c06101b0565b6040516100cd9190610ae0565b60405180910390f35b6100f060048036038101906100eb9190610910565b6101b6565b6040516100fd9190610a45565b60405180910390f35b34801561011257600080fd5b5061011b610363565b005b34801561012957600080fd5b5061013261049d565b60405161013f9190610ae0565b60405180910390f35b34801561015457600080fd5b5061015d61059f565b60405161016a9190610a01565b60405180910390f35b61017b6105c8565b005b34801561018957600080fd5b506101a4600480360381019061019f91906108e7565b6106e0565b005b6000600154905090565b60015481565b60006101cc60023461088990919063ffffffff16565b47101561020e576040517f08c379a000000000000000000000000000000000000000000000000000000000815260040161020590610a60565b60405180910390fd5b60008260ff161480610223575060018260ff16145b610262576040517f08c379a000000000000000000000000000000000000000000000000000000000815260040161025990610ac0565b60405180910390fd5b8160ff166002426102739190610c60565b14156102ee57346001600082825461028b9190610bd7565b925050819055503373ffffffffffffffffffffffffffffffffffffffff166108fc6002346102b99190610b7d565b9081150290604051600060405180830381858888f193505050501580156102e4573d6000803e3d6000fd5b506001905061030c565b34600160008282546103009190610b27565b92505081905550600090505b801515343373ffffffffffffffffffffffffffffffffffffffff167f271b3e8d94a67ce5e9cee03d78c310019308ea7075468a4eb2bac8b027b14c4d856040516103569190610afb565b60405180910390a4919050565b61036b61089f565b73ffffffffffffffffffffffffffffffffffffffff1661038961059f565b73ffffffffffffffffffffffffffffffffffffffff16146103df576040517f08c379a00000000000000000000000000000000000000000000000000000000081526004016103d690610aa0565b60405180910390fd5b600073ffffffffffffffffffffffffffffffffffffffff1660008054906101000a900473ffffffffffffffffffffffffffffffffffffffff1673ffffffffffffffffffffffffffffffffffffffff167f8be0079c531659141344cd1fd0a4f28419497f9722a3daafe3b4186f6b6457e060405160405180910390a360008060006101000a81548173ffffffffffffffffffffffffffffffffffffffff021916908373ffffffffffffffffffffffffffffffffffffffff160217905550565b60006104a761089f565b73ffffffffffffffffffffffffffffffffffffffff166104c561059f565b73ffffffffffffffffffffffffffffffffffffffff161461051b576040517f08c379a000000000000000000000000000000000000000000000000000000000815260040161051290610aa0565b60405180910390fd5b3373ffffffffffffffffffffffffffffffffffffffff166108fc479081150290604051600060405180830381858888f19350505050158015610561573d6000803e3d6000fd5b5060004714610599577f4e487b7100000000000000000000000000000000000000000000000000000000600052600160045260246000fd5b47905090565b60008060009054906101000a900473ffffffffffffffffffffffffffffffffffffffff16905090565b6105d061089f565b73ffffffffffffffffffffffffffffffffffffffff166105ee61059f565b73ffffffffffffffffffffffffffffffffffffffff1614610644576040517f08c379a000000000000000000000000000000000000000000000000000000000815260040161063b90610aa0565b60405180910390fd5b600034141561065257600080fd5b610667346001546108a790919063ffffffff16565b6001819055507fed7d0ddcc17abdb3935a0a23cd93e91b449dfeac7fd0def9f481ed5b37e18c4d333460405161069e929190610a1c565b60405180910390a147600154146106de577f4e487b7100000000000000000000000000000000000000000000000000000000600052600160045260246000fd5b565b6106e861089f565b73ffffffffffffffffffffffffffffffffffffffff1661070661059f565b73ffffffffffffffffffffffffffffffffffffffff161461075c576040517f08c379a000000000000000000000000000000000000000000000000000000000815260040161075390610aa0565b60405180910390fd5b600073ffffffffffffffffffffffffffffffffffffffff168173ffffffffffffffffffffffffffffffffffffffff1614156107cc576040517f08c379a00000000000000000000000000000000000000000000000000000000081526004016107c390610a80565b60405180910390fd5b8073ffffffffffffffffffffffffffffffffffffffff1660008054906101000a900473ffffffffffffffffffffffffffffffffffffffff1673ffffffffffffffffffffffffffffffffffffffff167f8be0079c531659141344cd1fd0a4f28419497f9722a3daafe3b4186f6b6457e060405160405180910390a3806000806101000a81548173ffffffffffffffffffffffffffffffffffffffff021916908373ffffffffffffffffffffffffffffffffffffffff16021790555050565b600081836108979190610b7d565b905092915050565b600033905090565b600081836108b59190610b27565b905092915050565b6000813590506108cc81610e05565b92915050565b6000813590506108e181610e1c565b92915050565b6000602082840312156108f957600080fd5b6000610907848285016108bd565b91505092915050565b60006020828403121561092257600080fd5b6000610930848285016108d2565b91505092915050565b61094281610c0b565b82525050565b61095181610c1d565b82525050565b6000610964602183610b16565b915061096f82610cef565b604082019050919050565b6000610987602683610b16565b915061099282610d3e565b604082019050919050565b60006109aa602083610b16565b91506109b582610d8d565b602082019050919050565b60006109cd602283610b16565b91506109d882610db6565b604082019050919050565b6109ec81610c49565b82525050565b6109fb81610c53565b82525050565b6000602082019050610a166000830184610939565b92915050565b6000604082019050610a316000830185610939565b610a3e60208301846109e3565b9392505050565b6000602082019050610a5a6000830184610948565b92915050565b60006020820190508181036000830152610a7981610957565b9050919050565b60006020820190508181036000830152610a998161097a565b9050919050565b60006020820190508181036000830152610ab98161099d565b9050919050565b60006020820190508181036000830152610ad9816109c0565b9050919050565b6000602082019050610af560008301846109e3565b92915050565b6000602082019050610b1060008301846109f2565b92915050565b600082825260208201905092915050565b6000610b3282610c49565b9150610b3d83610c49565b9250827fffffffffffffffffffffffffffffffffffffffffffffffffffffffffffffffff03821115610b7257610b71610c91565b5b828201905092915050565b6000610b8882610c49565b9150610b9383610c49565b9250817fffffffffffffffffffffffffffffffffffffffffffffffffffffffffffffffff0483118215151615610bcc57610bcb610c91565b5b828202905092915050565b6000610be282610c49565b9150610bed83610c49565b925082821015610c0057610bff610c91565b5b828203905092915050565b6000610c1682610c29565b9050919050565b60008115159050919050565b600073ffffffffffffffffffffffffffffffffffffffff82169050919050565b6000819050919050565b600060ff82169050919050565b6000610c6b82610c49565b9150610c7683610c49565b925082610c8657610c85610cc0565b5b828206905092915050565b7f4e487b7100000000000000000000000000000000000000000000000000000000600052601160045260246000fd5b7f4e487b7100000000000000000000000000000000000000000000000000000000600052601260045260246000fd5b7f54686520636f6e7472616374206861736e277420656e6f756768742066756e6460008201527f7300000000000000000000000000000000000000000000000000000000000000602082015250565b7f4f776e61626c653a206e6577206f776e657220697320746865207a65726f206160008201527f6464726573730000000000000000000000000000000000000000000000000000602082015250565b7f4f776e61626c653a2063616c6c6572206973206e6f7420746865206f776e6572600082015250565b7f496e636f727265637420736964652c206e6565647320746f2062652030206f7260008201527f2031000000000000000000000000000000000000000000000000000000000000602082015250565b610e0e81610c0b565b8114610e1957600080fd5b50565b610e2581610c53565b8114610e3057600080fd5b5056fea2646970667358221220b20cba3fdaaf22aafdf548dd488a2692b0bbc9a02e3cc28283cd65f53bf5f15a64736f6c63430008030033",
  "immutableReferences": {},
  "source": "import \"../node_modules/@openzeppelin/contracts/access/Ownable.sol\";\r\nimport \"../node_modules/@openzeppelin/contracts/utils/math/SafeMath.sol\";\r\n\r\npragma solidity ^0.8.3;\r\n\r\ncontract FlipContract is Ownable {\r\n    \r\n    using SafeMath for uint256;\r\n\r\n    uint public ContractBalance;\r\n\r\n    event bet(address indexed user, uint indexed bet, bool indexed win, uint8 side);\r\n    event funded(address owner, uint funding);\r\n\r\n    // Function to simulate coin flip 50/50 randomnes\r\n    function flip(uint8 side) public payable returns(bool win){\r\n        require(address(this).balance >= msg.value.mul(2), \"The contract hasn't enought funds\");\r\n        require(side == 0 || side == 1, \"Incorrect side, needs to be 0 or 1\");\r\n        if(block.timestamp % 2 == side){\r\n            ContractBalance -= msg.value;\r\n            payable(msg.sender).transfer(msg.value * 2);\r\n            win = true;\r\n        }\r\n        else{\r\n            ContractBalance += msg.value;\r\n            win = false;\r\n        }\r\n        emit bet(msg.sender, msg.value, win, side);\r\n    }\r\n    // Function to Withdraw Funds\r\n    function withdrawAll() public onlyOwner returns(uint){\r\n        payable(msg.sender).transfer(address(this).balance);\r\n        assert(address(this).balance == 0);\r\n        return address(this).balance;\r\n    }\r\n    // Function to get the Balance of the Contract\r\n    function getBalance() public view returns (uint) {\r\n        return ContractBalance;\r\n    }\r\n    // Fund the Contract\r\n    function fundContract() public payable onlyOwner {\r\n        require(msg.value != 0);\r\n        ContractBalance = ContractBalance.add(msg.value);\r\n        emit funded(msg.sender, msg.value);\r\n        assert(ContractBalance == address(this).balance);\r\n    }\r\n\r\n}",
  "sourcePath": "/Users/enrique/Desktop/flipCoinDapp/truffle/contracts/flipcontract.sol",
  "compiler": {
    "name": "solc",
    "version": "0.8.3+commit.8d00100c.Emscripten.clang"
  },
  "schemaVersion": "3.3.4",
  "updatedAt": "2021-04-20T05:47:44.803Z",
  "devdoc": {
    "kind": "dev",
    "methods": {
      "owner()": {
        "details": "Returns the address of the current owner."
      },
      "renounceOwnership()": {
        "details": "Leaves the contract without owner. It will not be possible to call `onlyOwner` functions anymore. Can only be called by the current owner. NOTE: Renouncing ownership will leave the contract without an owner, thereby removing any functionality that is only available to the owner."
      },
      "transferOwnership(address)": {
        "details": "Transfers ownership of the contract to a new account (`newOwner`). Can only be called by the current owner."
      }
    },
    "version": 1
  },
  "userdoc": {
    "kind": "user",
    "methods": {},
    "version": 1
  }
}